:101CD10025730A0048444D4952585F53414D504CB9
:101CE100455F322E3136000A25730A005468657249
:101CF10065206973206E6F207369676E616C3A208D
:101D01005265673130203D202530325820526567B9
:101D11003132203D2025303258205265673634203B
:101D21003D2025303258205265673635203D20252B
:101D31003032580A000A0A000A3D3D3D3D3D3D3D15
:101D41003D3D3D3D3D3D3D3D3D3D3D3D3D3D3D3DC2
:101D51003D3D3D3D3D3D3D3D3D3D3D3D3D3D3D3DB2
:101D61003D3D3D3D3D3D3D3D3D3D3D3D3D3D3D3DA2
:101D71003D3D3D3D3D3D3D3D3D3D3D3D3D3D3D3D92
:101D81003D0A002573206D6F64650A0048444D4982
:101D910000445649004D6F6465202D202564782547
:101DA100644000256C642E2530326C64487A004012
:101DB1003438626974730040333662697473004069
:101DC1003330626974730040323462697473004065
:101DD1004E6F206465662832346269747329002C61
:101DE1002050434C4B203D20256C642E2530326C15
:101DF100644D487A002C78436E743D2025642E256D
:101E010030326C640A003C253464782534643E2CFD
:101E110000483A2825642C25642C2564292C005679
:101E21003A2825642C25642C2564292C200056533E
:101E3100796E63546F4445203D2025640A003D3D81
:101E41003D3D3D3D3D3D3D3D3D3D3D3D3D3D3D3DC1
:101E51003D3D3D3D3D3D3D3D3D3D3D3D3D3D3D3DB1
:101E61003D3D3D3D3D3D3D3D3D3D3D3D3D3D3D3DA1
:101E71003D3D3D3D3D3D3D3D3D3D3D3D3D3D3D3D91
:101E81003D3D3D3D3D3D0A00484443502025730AF8
:101E9100004F4E004F464600417564696F20696EE0
:101EA1007075742069732048425220284869676818
:101EB1002042697420526174652920617564696FDB
:101EC1002E0A00417564696F20696E70757420690E
:101ED100732044534420284F6E6520426974204189
:101EE1007564696F2920617564696F2E0A004175F7
:101EF10064696F20696E7075742069732049454368
:101F010020363139333720636F6D707265737365B5
:101F11006420617564696F2E0A00417564696F20E0
:101F2100696E7075742069732049454320363039D4
:101F31003538206C696E6561722050434D206175A2
:101F410064696F2E0A006C61796F75742025642CA9
:101F51002000256420736F757263650A0043686110
:101F61006E6E656C205374617475733A202530323E
:101F7100582025303258202530325820253032580B
:101F810020253032580A004E6F20417564696F2E4A
:101F91000A00476574415649496E666F4672616D24
:101FA1006528293A002025303258000A0043616E25
:101FB1006E6F74206765742041564920496E666FC3
:101FC1006672616D6528290A004765744175646907
:101FD1006F496E666F4672616D6528293A004361EB
:101FE1006E6E6F742067657420617564696F206916
:101FF1006E666F6672616D652E0A0047657456459F
:102001004E444F5253504543496E666F4672616D5F
:102011006528293A0043616E6E6F742047657456D6
:10202100454E444F5253504543496E666F46726167
:062031006D6528290A007C
:0A50CB00A2B29202200202D322C317
:0150D50022B8
:104EF600124B9E90002674FFF0A3741CF0A374D589
:0A4F0600F07BFF7A1C79D10210D075
:102D1000E4900000F0A3F0124EF690002674FFF04D
:102D2000A3741CF0A374D5F07BFF7A1C79E8121011
:102D3000D0124B49124EDB7F0212453AE4FF124A91
:102D4000F1D2021233BE1243F7E49000C0F0A3F0B8
:102D5000A3F0A3F0124B491250CB50031251357F10
:102D6000147E001249FB50EC900001E004F0700664
:102D7000900000E004F0A2199200124FAE9219A246
:102D800000301901B350028001C39201300122309A
:102D900019101214E81250625003122EB91235A104
:102DA000800BE49000C0F0A3F0A3F0A3F0C2018078
:102DB0007930196B900000E0FEA3E0FF7C007D14E9
:102DC000120560ED64014C70619000C1E004F07088
:102DD000069000C0E004F012512F9000C3E02FF0E5
:102DE0009000C2E03400F09000C0E0FEA3E0FFD30A
:102DF0009428EE6480948040317C007D021205604E
:102E00009000C0EEF0A3EFF0A3E0FEA3E0FF7C0093
:102E10007D021205609000C2EEF0A3EFF0800BE49B
:102E20009000C0F0A3F0A3F0A3F0D3900001E094D1
:102E3000E8900000E0648094835003022D54E4F095
:102E4000A3F03019101214E81250625003122EB978
:102E50001235A180557F10124DCF7E00C007C006ED
:102E60007F12124DCF7E00C007C0067F64124DCF87
:102E70007E00C007C0067F65124DCF90002CE4F0A5
:102E8000A3EFF090002AD0E0F0A3D0E0F09000286B
:102E9000D0E0F0A3D0E0F0900026D0E0F0A3D0E0A6
:102EA000F07BFF7A1C79ED1210D07BFF7A1D79360A
:092EB0001210D0122542022D542B
:1014E8009000C1E004F070069000C0E004F01251D2
:1014F8002F9000C3E02FF09000C2E03400F01242B9
:1015080070900002EEF0A3EFF01242D5900004EEC6
:10151800F0A3EFF0124DEF900006EEF0A3EFF012FB
:101528004209900008EEF0A3EFF090001212075C59
:101538000034BC00900012E0F8A3E0F9A3E0FAA39D
:10154800E0FB9000C0E0FEA3E0FFEE3395E0FDFC79
:101558001205E4900012120750900012E0FCA3E07C
:10156800FDA3E0FEA3E0FFC006C0079000C2E0FEB6
:10157800A3E0FBAA06EA3395E0F9F8D007D00612F3
:10158800066F900012120750900012E0FCA3E0FDD5
:10159800A3E0FEA3E0FFE47BE87A03F9F81205E490
:1015A800900012120750900006E0FEA3E0FBAA0686
:1015B800E4F9F8900012E0FCA3E0FDA3E0FEA3E04C
:1015C800FF12066F90000A120750E47F64FEFDFCCC
:1015D80090000AE0F8A3E0F9A3E0FAA3E0FB120503
:1015E800E4C006C007900008E0FEA3E0FBAA06E4FA
:1015F800F9F8D007D00612066F90000E1207507B3C
:10160800FF7A1D79391210D01250627BFF50067A8A
:101618001D798D80047A1D7992900026EBF0A3EA5B
:10162800F0A3E9F07BFF7A1D79841210D07BFF7A52
:101638001D7996900002E0FFA3E0900026CFF0A36A
:10164800EFF0900004E0FFA3E0900028CFF0A3EFB4
:10165800F01210D0E47B64FAF9F890000EE0FCA3D5
:10166800E0FDA3E0FEA3E0FF12066F90002612073C
:1016780050E47B64FAF9F890000EE0FCA3E0FDA3C7
:10168800E0FEA3E0FF12066FAC00AD01AE02AF03AF
:1016980090002A1207507BFF7A1D79A41210D012ED
:1016A800508BEF24FC602114601614600B1470201A
:1016B8007BFF7A1D79B0801E7BFF7A1D79B8801672
:1016C8007BFF7A1D79C0800E7BFF7A1D79C8800662
:1016D8007BFF7A1D79D01210D07B407A42790F783F
:1016E80000900012E0FCA3E0FDA3E0FEA3E0FF12DF
:1016F800066F900026120750E47B107A27F9F890BD
:101708000012E0FCA3E0FDA3E0FEA3E0FF12066FD9
:10171800E47B64FAF9F812066FAC00AD01AE02AFD3
:101728000390002A1207507BFF7A1D79E01210D02F
:101738009000C2E0FEA3E0FFEE3395E0FDFC9000D0
:1017480012120750900012E0FCA3E0FDA3E0FEA3F4
:10175800E0FFE47B64FAF9F81205E490001212073E
:1017680050900012E0FCA3E0FDA3E0FEA3E0FFC060
:1017780006C0079000C0E0FEA3E0FBAA06EA339586
:10178800E0F9F8D007D00612066F90001212075041
:10179800900012E0FCA3E0FDA3E0FEA3E0FFC0047C
:1017A800C005C006C0079000C0E0FCA3E0FDA3E0B0
:1017B800FEA3E0FF120560EE3395E0FDFCE47B64D8
:1017C800FAF9F81205E4A804A905AA06AB07D00798
:1017D800D006D005D004C3EF9BFFEE9AFEED99FD2D
:1017E800EC98FC9000121207509000C0E0FCA3E0B7
:1017F800FDA3E0FEA3E0FF120560900026EEF0A333
:10180800EFF0900012E0FCA3E0FDA3E0FEA3E0FFF0
:101818009000281207507BFF7A1D79F61210D07BB2
:10182800FF7A1E7907900006E0FFA3E0900026CF1C
:10183800F0A3EFF0900008E0FFA3E0900028CFF0BD
:10184800A3EFF01210D0124D8FC007C006124E0E33
:10185800C007C0061247E190002AEEF0A3EFF0900F
:101868000028D0E0F0A3D0E0F0900026D0E0F0A36C
:10187800D0E0F07BFF7A1E79121210D0124855C0C2
:1018880007C00612439BC007C006124F1090002ADB
:10189800EEF0A3EFF0900028D0E0F0A3D0E0F090B5
:1018A8000026D0E0F0A3D0E0F07BFF7A1E7920126A
:1018B80010D0120003900026EEF0A3EFF07BFF7A21
:1018C8001E792F1210D07BFF7A1E793F1210D0128A
:1018D80047277BFF50067A1E799280047A1E7995F5
:1018E800900026EBF0A3EAF0A3E9F07BFF7A1E79DB
:0D18F800891210D07BFF7A1E793F0210D0BC
:1035A1007BFF7A1D79391210D0123CB1900002EFE5
:0835B100F054F07003023672C1
:1035B900E0B4C0097BFF7A1E79990236789000023F
:1035C900E0B4A0097BFF7A1E79C402367890000224
:1035D900E054907BFF60067A1E79EF80047A1F79A8
:1035E9001B1210D07BFF7A1F7947900002E030E36D
:1035F900047F0180027F00900026EFF01210D07B3B
:10360900FF7A1F7953900002E05407FF900026E4E7
:10361900F0A3EFF01210D07B017A0079031232C0C7
:103629007BFF7A1F795E900003E0FF900026E4F0AB
:10363900A3EFF0900004E0FF900028E4F0A3EFF07E
:10364900900005E0FF90002AE4F0A3EFF090000657
:10365900E0FF90002CE4F0A3EFF0900007E0FF906A
:07366900002EE4F0A3EFF0D6
:1036700080067BFF7A1F79881210D07BFF7A1E7933
:043680003F0210D025
:102EB9007B017A00790212433A50657BFF7A1F79C8
:102EC900931210D0E4900021F0A3F0900004E05494
:102ED9001F2403FFE433FE900021E0FCA3E0FDD3AF
:102EE9009FEE6480F8EC648098502D7BFF7A1F79FF
:102EF900A674022DF58274003CF583E0FF9000264C
:102F0900E4F0A3EFF01210D0900022E004F070BBBF
:102F1900900021E004F080B37BFF7A1F79AC800632
:102F29007BFF7A1F79AE1210D07B017A00790212E9
:102F39003AF150657BFF7A1F79CA1210D0E49000EC
:102F490021F0A3F0900004E0541F2403FFE433FEB2
:102F5900900021E0FCA3E0FDD39FEE6480F8EC64CF
:102F69008098502D7BFF7A1F79A674022DF5827403
:102F7900003CF583E0FF900026E4F0A3EFF0121087
:102F8900D0900022E004F070BB900021E004F080B2
:102F9900B37BFF7A1F79AC80067BFF7A1F79DF123A
:102FA90010D07B017A007902123E5950657BFF7A75
:102FB9001F79FC1210D0E4900021F0A3F0900004D6
:102FC900E0541F2403FFE433FE900021E0FCA3E05A
:102FD900FDD39FEE6480F8EC648098502D7BFF7AD6
:102FE9001F79A674022DF58274003CF583E0FF90E9
:102FF9000026E4F0A3EFF01210D0900022E004F0D4
:1030090070BB900021E004F080B37BFF7A1F79AC9C
:0B30190080067BFF7A2079161210D091
:013024002289
:10085C005653544154455F4F6666005653544154A9
:10086C00455F5077724F6666005653544154455F4E
:10087C0053796E6357616974200056535441544543
:10088C005F53575265736574005653544154455F1A
:10089C0053796E63436865636B696E670056535496
:1008AC004154455F4844435053657400565354417A
:1008BC0054455F484443505F52657365740056530A
:1008CC00544154455F4D6F64654465746563746948
:1008DC006E67005653544154455F566964656F4FBB
:1008EC006E005653544154455F436F6C6F724465B0
:1008FC007465637452657365740056535441544562
:10090C005F5265736572766564004153544154457A
:10091C005F417564696F4F6666004153544154459D
:10092C005F52657175657374417564696F004153ED
:10093C00544154455F5265736574417564696F0029
:10094C004153544154455F57616974466F72526507
:10095C00616479004153544154455F417564696F3A
:10096C004F6E004153544154455F52657365727626
:10097C0065640053656C65637448444D49506F72EF
:10098C0074207563506F7274203D2025642C207583
:10099C006343757272656E7448444D49506F72743E
:1009AC00203D2025640A00496E697448444D495223
:1009BC00582846414C5345293A20726567303720F8
:1009CC003D20253032582C20756343757272656E4C
:1009DC007448444D49506F7274203D2025640A00C0
:1009EC005465726D696E61746F725F4F66662C2010
:1009FC007265673037203D20253032780A00546507
:100A0C00726D696E61746F725F4F6E2C20726567C8
:100A1C003037203D20253032780A005244524F4D59
:100A2C005F526573657428290A00436865636B5FC0
:100A3C00484443505F5244524F4D28290A004368A2
:100A4C0065636B5F484443505F5244524F4D2829B5
:100A5C00646F6E652E0A007265673132203D202569
:100A6C00303258207265673635203D20253032589B
:100A7C000A00355620506F776572204F66662069E4
:100A8C006E746572727570740A0053434454204F2F
:100A9C00666620696E746572727570740A003556DC
:100AAC0020506F776572204F6E20696E746572727C
:100ABC007570740A0053434454204F6E20696E7451
:100ACC006572727570740A0048444D49204D6F640C
:100ADC0065206368616E676520696E7465727275F6
:100AEC0070742E0A00566964656F206D6F64652002
:100AFC006368616E676520696E7465727275707477
:100B0C002E0A3A0041564D75746520736574206940
:100B1C006E746572727570742E0A004E6577204182
:100B2C00564920496E666F204672616D6520436898
:100B3C00616E676520696E746572727570740A00F7
:100B4C0041564D75746520636C65617220696E74D5
:100B5C006572727570742E0A00696E7433203D20B4
:100B6C00253032582C454343206572726F722069D0
:100B7C006E746572727570740A00476574534344E1
:100B8C0054204F46460A005258494E545F566964E9
:100B9C00656F4D6F64655F4368670A0048444D4953
:100BAC00204D6F64652E0A00445649204D6F6465D4
:100BBC002E0A005673796E635761697452657365BA
:100BCC007454696D65722075702C2063616C6C2097
:100BDC00535752657365745F48444D4952582829E0
:100BEC000A005245475F52585F5359535F53544163
:100BFC005445203D2025580D00484443502074692D
:100C0C006D65722072656163682C20726573657402
:100C1C002021210A00566964656F54696D6572481C
:100C2C00616E646C65725B5653544154455F484425
:100C3C0043505F52657365745D282564290A00482A
:100C4C00546F74616C206368616E6765642E0A0072
:100C5C0058636E74206368616E6765642E2025305E
:100C6C003278202D3E20253032782000646966666B
:100C7C00203D2025640D0A0064696666203D202510
:100C8C00640A0D005363616E4D6F64652063686187
:100C9C006E67652E0D0A003D3D3D5B417564696FC5
:100CAC00204653204572726F72205D3D3D3D0A0017
:100CBC00417564696F206368616E67652C20636C95
:100CCC0065617220417564696F204572726F722084
:100CDC00436F756E742E0A00417564696F204F6EF8
:100CEC002C20636C65617220417564696F204572BC
:100CFC00726F7220436F756E742E0A004D75746599
:100D0C00526573756D696E6754696D6572203D200F
:100D1C002564207563203D20253032580A00525836
:100D2C0020565374617465202573202D3E20257345
:100D3C000A00737769746368205653544154455FB5
:100D4C0053796E63436865636B696E672C207265BB
:100D5C00673941203D20253032580A0041537461D7
:100D6C007465202D3E2025730A00417564696F4F10
:100D7C006E2C20627574207374696C6C20696E2003
:100D8C006D7574652E0A00735F43757272656E74AF
:100D9C00564D2E78436E74203D3D20253032780A16
:100DAC0000566964656F5F48616E646C65722C20D7
:100DBC00565374617465203D205653544154455F1D
:100DCC004D6F6465446574656374696E672E0A00C3
:100DDC00566964656F5F48616E646C657228293A68
:100DEC00207265673941203D20253032580A005465
:100DFC0068697320697320445649204D6F64652ED1
:100E0C000A00496E76616C696420436F6C6F7220C6
:100E1C006D6F64652025642C2069676E6F72652E7A
:100E2C000A00536574566964656F496E7075744633
:100E3C006F726D617457697468496E666F46726142
:100E4C006D6528293A20005245475F52585F41563C
:100E5C00495F444231202530325820676574207533
:100E6C006320253032582000696E707574205955F6
:100E7C0056343434206D6F64652000696E7075745F
:100E8C0020595556343232206D6F64652000696EDE
:100E9C00707574205247423234206D6F64652000A7
:100EAC00496E76616C696420696E70757420636F2D
:100EBC006C6F72206D6F64652C2069676E6F726544
:100ECC002E0A00496E70757420566964656F206D2A
:100EDC006F6465206368616E6765642E000A005359
:100EEC006574436F6C6F72696D6574727942794980
:100EFC006E666F4672616D653A204E657741564954
:100F0C00496E666F4672616D6546203D20257320E3
:100F1C0000545255450046414C534500465F4D4FD9
:100F2C0044455F4954553630310A00465F4D4F44B5
:100F3C00455F4954553730390A00495455373039D3
:100F4C0020002031362D3233350A0020302D323539
:100F5C00350A004954553630312000435343203D67
:100F6C002059555632524742200031362D323335F6
:100F7C000A00302D3235350A007265672025303273
:100F8C0058203C2D2025303258203D202530325819
:100F9C000A0020202020202020002025303258005C
:100FAC002020000A20202020202020202D2D2D2D37
:100FBC002D2D2D2D2D2D2D2D2D2D2D2D2D2D2D2D55
:100FCC002D2D2D2D2D2D2D2D2D2D2D2D2D2D2D2D45
:100FDC002D2D2D2D2D2D2D2D2D2D2D2D2D2D2D2D35
:100FEC002D0A005B2533585D202000202D00202089
:100FFC002020202020202D2D2D2D2D2D2D2D2D2D63
:10100C002D2D2D2D2D2D2D2D2D2D2D2D2D2D2D2D04
:10101C002D2D2D2D2D2D2D2D2D2D2D2D2D2D2D2DF4
:10102C002D2D2D2D2D2D2D2D2D2D2D0A001D3075F9
:10103C00603D001B001C0078C1FFFF0F0008CE3B79
:10104C004068036B116C009343944F95879633560D
:09105C0001970E2020895FFFFFBF
:103D3F0056006D085C086708750886089508A9087D
:103D4F00B808CA08DF08EE09064C005B09160926F9
:103D5F00093A094C0960096F41006C000113010118
:103D6F000E0002110000020F000002140000C11526
:103D7F00010D00011640C1114100A000410084FF58
:103D8F00410067004200A303204100690041008306
:103D9F000EC118C114C1124100850041008600C137
:103DAF0016C10FC1174100A10241009F00410068D9
:033DBF0000C190B0
:03513500022764EA
:104FAE001250BF1241987813E6B40805201202D3AE
:034FBE0022C322E9
:104AF100EF60027F01900068E06F6002EFF07BFFE2
:104B01007A09797F900026E4F0A3EFF0900068E045
:0C4B1100FF900028E4F0A3EFF00210D0A9
:06512900900068E0FF2287
:1033BE00300203125138124BC7E4FD7F06124CB691
:1033CE003002077D107F05124CB67DA17F05124C91
:1033DE00B67F04124DCF900084EFF0900068E0901D
:1033EE0000027005740CF08003741CF0900002E073
:1033FE00FD7F07124CB67F07124DCF900026E4F0EA
:10340E00A3EFF07BFF7A0979B3900068E0FF90009C
:10341E0028E4F0A3EFF01210D07D0FE4FF1248F76E
:10342E007D85E4FF12492B7D07E4FF12495FE4FD21
:10343E00FF12499312465B124127124F9A7D207F4D
:10344E0005124CB6E49000A0F0900084E0B4A20EF9
:10345E007D097F11124CB67D197F11124CB63002C8
:10346E00077FC87E00124F5A1245CC7D217F051270
:10347E004CB67F017E00124F5A124F9A7D207F0567
:10348E00124CB6300208124BC77F031222DA7F733A
:10349E00124DCFEF540FFD7F73124CB6D210200297
:0934AE0008124BEF7F011222DA33
:0134B70022F2
:0F503600300203024B75124BC7E4FF1222DA223D
:0E5054007D0F7F07124CB67D017F06024CB621
:0D507E007F58124DCFEF30E102D322C32244
:104D4D0012506250197FAE124DCFEF546024E060C7
:104D5D000724E070067F02227F01227F00227F0060
:014D6D002223
:104DEF007F59124DCF900016EFF07F5A124DCF9092
:0E4DFF000017EFF0540FFE900016E0FDEDFFE0
:014E0D002282
:104270007F59124DCF90001CEFF07F5A124DCF9016
:10428000001DEFF07F5B124DCFA90790001EE9F0F3
:1042900090001DE0FD540FFF90001FE4F0A3EFF02D
:1042A000E0F8E4F0E890001FF090001CE0FF9000C0
:1042B0001FE0F0A3E04FF0EDC4540F5407FEE9FDFA
:1042C000EDFFEE4408FCD3E09D90001FE09C40040D
:0442D000EE4408FEB2
:0142D40022C7
:104D8F007F5E124DCF900016EFF07F5D124DCFEF8B
:0F4D9F00C45403900017F0FE900016E0FDEDFFE6
:014DAE0022E2
:104E0E007F5C124DCF900016EFF07F5D124DCFEF0D
:0E4E1E005401900017F0FE900016E0FDEDFF2D
:014E2C002263
:1047E100124270C006C007124DEFAC06AD07D007EC
:1047F100D006C3ED9FFFEC9EFEC006C007124D8F91
:10480100C3D0E09FFFD0E09EFEC006C007124E0E4F
:09481100C3D0E09FFFD0E09EFE41
:01481A00227B
:104209007F5F124DCF90001CEFF07F60124DCF9071
:10421900001DEFF07F61124DCF90001EEFF090006E
:104229001DE0F9540FFA90001CE0FFEFFBE9C454BC
:1042390007FF90001FE4F0A3EFF090001EE0FFA33A
:10424900E0FEA3E04FFF90001FEEF0FEA3EFF0EEBB
:104259004404FED3EB9FEA9E400890001FEEF0A3B2
:06426900EFF0AE02AF030E
:01426F00222C
:1042D5007F5F124DCF90001CEFF07F60124DCF90A5
:1042E500001DEFF07F61124DCFA90790001EE9F088
:1042F50090001DE0FD540FFF90001FE4F0A3EFF0C8
:10430500E0F8E4F0E890001FF090001CE0FF90005A
:104315001FE0F0A3E04FF0EDC4540F5407FEE9FD94
:10432500EDFFEE4404FCD3E09D90001FE09C4004AB
:04433500EE4404FE50
:014339002261
:104855007F63124DCFEF540FFF900016E4F0A3EFE6
:10486500F01242D5BE0216BF5813124209BE020D00
:10487500BF9A0A900016E0F0A3E04420F0900016DD
:05488500E0FEA3E0FFCE
:01488A00220B
:070003007F62124DCF7E0069
:01000A0022D3
:10439B00120003900016EEF0A3EFF012420990000A
:1043AB0018EEF0A3EFF01242D590001AEEF0A3EF47
:1043BB00F0124270C390001BE0942C90001AE09412
:1043CB000150057E007F0322BE021CBF8019BE0177
:1043DB0016BFE0137F64124DCFEFC394807E005065
:0B43EB00037F03227F02227E007F057B
:0143F60022A4
:104F100012439BC006C007120003AC06AD07D007C2
:094F2000D006C3ED9FFFEC9EFEDC
:014F29002265
:06512F007F64124DCF2247
:103EDF009000BAEBF0A3EAF0A3E9F0125062506839
:103EEF009000BAE0FBA3E0FAA3E0F9EA494B6018AF
:103EFF007F84124DCFEF540FFF9000BAE0FBA3E089
:103F0F00FAA3E0F9EF12052C9000BDE0FBA3E0FA55
:103F1F00A3E0F9EA494B602E7F8A124DCF9000BD86
:103F2F00E0FBA3E0FAA3E0F9EF12052C9000BDE04F
:103F3F00FBA3E0FAA3E0F91204E630E404540F8087
:0A3F4F0002740112052CD322C322D4
:10433A00900023EBF0A3EAF0A3E9F0900023E0FB5E
:10434A00A3E0FAA3E04A4B7002D322900023E0FBD9
:10435A00A3E0FAA3E0F9748212052C7FAC124DCFC8
:10436A00900023E0FBA3E0FAA3E0F9900001EF122A
:10437A00053E900002740D12053EE92403F9E43A61
:10438A00FA90002AE4F0A3740EF07FAD12488BD3A2
:01439A002200
:0B3AF100900023EBF0A3EAF0A3E9F043
:103AFC00900023E0FBA3E0FAA3E04A4B7002C32240
:103B0C00900023E0FBA3E0FAA3E0F9748412052CE7
:103B1C007FDC124DCF900023E0FBA3E0FAA3E0F989
:103B2C00900001EF12053E7FE3124DCF900023E091
:103B3C00FBA3E0FAA3E0F9900002EF12053EE924A2
:103B4C0003F9E43AFA90002AE4F0A37406F07FDD5E
:103B5C0012488B7F05900023E0FBA3E0FAA3E0F969
:103B6C009000021204FFFEEFD39E5010EF2404F5D8
:0D3B7C0082E433F583E412053E0F80D9D3B7
:013B89002219
:0B3E5900900023EBF0A3EAF0A3E9F0D7
:103E6400900023E0FBA3E0FAA3E04A4B7002C322D4
:103E7400201602C3227FBD124DCFEF64816002C3BE
:103E840022900023E0FBA3E0FAA3E0F9EF12052C53
:103E9400900026E4F0A304F0900026E0FEA3E0FFE7
:103EA400C3941FEE64809480502FEF24BDFF124D05
:103EB400CF900023E0FBA3E0FAA3E0F9A3E0FCA386
:103EC400E0F5828C83EF12053E900027E004F07049
:0A3ED400C7900026E004F080BFD381
:013EDE0022C1
:0B3684009000A5EBF0A3EAF0A3E9F032
:10368F00E4FD7F0F124CB6E49000AAF0A3F0900077
:10369F00A8F0A3F09000A8E0FEA3E0FFC3EE6480C3
:1036AF009481503CEF124DCF9000A5E0FBA3E0FAC0
:1036BF00A3E0F99000AAE0FCA3E0F5828C83EF125F
:1036CF00053E9000A9E004F070069000A8E004F019
:1036DF009000ABE004F070BC9000AAE004F080B45E
:1036EF007D017F0F124CB69000A8E4F0A374A0F0F8
:1036FF009000A8E0FEA3E0FFD394F2EE64809480E4
:10370F00503CEF124DCF9000A5E0FBA3E0FAA3E0F1
:10371F00F99000AAE0FCA3E0F5828C83EF12053E3E
:10372F009000A9E004F070069000A8E004F090006B
:10373F00ABE004F070BA9000AAE004F080B2E4FDB0
:05374F007F0F024CB6E3
:075122007816E65403FF229A
:0C508B007F84124DCFEF54F0C4540FFF8F
:0150970022F6
:015138002254
:104BC7007F07124DCFEF440C90000AF0FD7F0712CC
:104BD7004CB67BFF7A0979EC90000AE0FF9000263B
:084BE700E4F0A3EFF00210D08E
:104BEF007F07124DCFEF54F3900009F0FD7F0712AE
:104BFF004CB67BFF7A0A790A900009E0FF900026F5
:084C0F00E4F0A3EFF00210D065
:1045CC007BFF7A0A79271210D07F9B124DCFEF54C4
:1045DC003F90000BF0E490000AF090000BE0448058
:1045EC00FD7F9B124CB690000BE044C0FD7F9B12EC
:1045FC004CB690000AE004F0E0C3941040DC90004C
:08460C000BE0FD7F9B024CB6A0
:104AC3007BFF7A0A79361210D07D207F05124CB60F
:104AD300124FF650187F92124DCFEF540F640960B6
:0D4AE300031245CC7BFF7A0A794A1210D0ED
:014AF00022A3
:104B7500124AC37D217F05124CB67F017E00124F7C
:104B85005A124F9A7D207F05124CB6124BC77F03F0
:094B95001222DAE490009FF022E4
:10412700E4900003F0900003E0FE25E02439F582D7
:10413700E43410F583E493FFF4601AEE25E0243AA3
:10414700F582E43410F583E493FD124CB690000336
:10415700E004F080D07816E654FCF67F3D124DCF90
:10416700EF54C0601824C0600C24C070107816E6A5
:104177004402F6800C7816E64401F680047816E6C9
:10418700F67F19124DCFEF30E403D38001C39218A5
:014197002205
:10465B00E4900003F0900003E0FE25E02447F58290
:10466B00E43410F583E493FFF4601AEE25E024485C
:10467B00F582E43410F583E493FD124CB6900003FD
:10468B00E004F080D0900084E0C394A340077D0148
:05469B007F9B124CB6EC
:0146A00022F7
:0547A60090000EEFF091
:1047AB007F19124DCF90000FEFF05430FFF09000B7
:1047BB000EE04FA3F0FD7F19124CB67F017E001265
:1047CB004F5A90000FE05430F0FD7F19124CB67F1A
:0647DB00017E00024F5AAE
:104D04007F18124DCF900009EFF04480FD7F1812F8
:104D14004CB67F017E00124F5A900009E0547FFD8B
:054D24007F18024CB6EF
:0F4FF6007F10124DCFEF5406B40603D38001C3D2
:015005002288
:104E87007F10124DCF900068E0B40108EF30E302C5
:0C4E9700D322C322EF30E003D38001C31C
:014EA30022EC
:0A47670090000FEDF090000EEFF04F
:10477100600A7F89124DCF900010EFF0900010E099
:10478100FF90000EE0FEEF5EFF900010F090000F32
:10479100E04FA3F0FD7F89124CB67F89124DCF9077
:0447A1000010EFF025
:0147A50022F1
:0A48F70090000DEDF090000CEFF0C2
:10490100600A7F16124DCF90000EEFF090000EE07E
:10491100FF90000CE0FEEF5EFF90000EF090000DA6
:0A492100E04FA3F0FD7F16024CB634
:0A492B0090000DEDF090000CEFF08D
:10493500600A7F17124DCF90000EEFF090000EE049
:10494500FF90000CE0FEEF5EFF90000EF090000D72
:0A495500E04FA3F0FD7F17024CB6FF
:0A495F0090000FEDF090000EEFF055
:10496900600A7F18124DCF900010EFF0900010E010
:10497900FF90000EE0FEEF5EFF900010F090000F38
:0A498900E04FA3F0FD7F18024CB6CA
:0A49930090000DEDF090000CEFF025
:10499D00600A7F8C124DCF90000EEFF090000EE06C
:1049AD00FF90000CE0FEEF5EFF90000EF090000D0A
:0A49BD00E04FA3F0FD7F8C024CB622
:0D5062007F10124DCFEF30E403D38001C367
:01506F00221E
:104727007F12124DCF900016EFF07F65124DCF909C
:104737000017EFF07BFF7A0A7963900016E0FD908F
:104747000026E4F0A3EDF0A3E4F0A3EFF01210D0FD
:0F475700900016E030E007A3E020E302D322C376
:014766002230
:0D5098007813E6B40805201202D322C322CB
:0D50A500780EE6B40405201202D322C322C7
:0B50D6007813E6B40803D38001C32266
:10453A00EF600F24FE601204700F9000A17401F066
:10454A00800DE49000A1F080069000A17402F09022
:10455A0000A1E0600B24FE600B04701BE4FD8012D6
:10456A007D20800E7813E6B408047F0080027F2045
:08457A00AD077FDF124767C3A4
:014582002216
:10276400E4900002F0A3F0A3F0A3F090000774CF6C
:10277400F07813E6FF6403700302296CEF70030220
:10278400296C7F10124DCF900006EFF07F13124D8D
:10279400CF900002EFF070030228487F011247A691
:1027A400124E8740107813E6FF64036008EF64015B
:1027B4006003024B75900002E030E10C7BFF7A0A63
:1027C400797E1210D01250B27813E66403700302BB
:1027D400296C900002E030E30C7BFF7A0A799612B0
:1027E40010D0124EA4900002E030E00C7BFF7A0A75
:1027F40079AA1210D0124FE57813E6B402139000B0
:1028040002E030E20C7BFF7A0A79C11210D0124F39
:102814002A7813E6FF64086005EF640670269000CA
:1028240002E030E40C7BFF7A0A79D41210D0124B08
:102834001D900002E030E50C7BFF7A0A79F112105A
:10284400D0124C177F14124DCF900003EFF0781381
:10285400E6FF64086004EFB4060C7F8B124DCF9042
:102864000005EFF08005E4900005F0900003E070AF
:0828740007900005E030E25E70
:10287C007F65124DCF900008EFF07FC21247A690F3
:10288C000003E030E00C7BFF7A0B79101210D012B1
:10289C004C3F900003E030E20C7BFF7A0B7927125F
:1028AC0010D0124DAF900003E030E70C7BFF7A0B99
:1028BC00794C1210D01246E57813E6FF64086004D8
:0E28CC00EFB4060A900005E030E2031244EB80
:1028DA007F15124DCF900004EFF054036003124DA0
:1028EA00047813E6FF64086005EF64067040900000
:1028FA0004E0541C60387F0C1247A6780EE660127A
:10290A00900004E05418600A125006E4FD7FE712B2
:10291A00495F900004E0FF30E2147BFF7A0B79658F
:10292A00900026E4F0A3EFF01210D0124D6E900042
:10293A0003E0FF900002E04F60287F13124DCF9012
:10294A000002EFF07F14124DCF900003EFF07F15D5
:10295A00124DCF900004EFF07F10124DCF90000679
:02296A00EFF08C
:01296C002248
:1044EB00900084E0C394A340457FBD124DCFEF6491
:1044FB00817034D2167FC4124DCFEF54E0FFBF4012
:10450B00137F3C124DCF900009EFF04404F0FD7F78
:10451B003C124CB67F1F124DCF900009EFF054EFB9
:0E452B00F0FD7F1F124CB67F327E001251123F
:01453900225F
:104FE5007813E6B4010A124E8750057F021222DAC1
:014FF5002299
:0D50B2007F10124DCF900009EFF0024B75FA
:104F2A007813E6B40211124FF6500C200F047F09D1
:084F3A0080027F041222DA223A
:015139002253
:104EA4007813E6640160147BFF7A0B79861210D0C4
:0C4EB4007F021222DA90009FE004F0223E
:104C17007BFF7A0B79931210D07F10124DCF900043
:104C270009EFF0124E87500A20170A7F021222DA84
:074C37008003124B75C21748
:014C3E002253
:104B1D007813E6640870241250627BFF500C7A0BF8
:104B2D0079A81210D07F010240B57A0B79B412101A
:0C4B3D00D0E4FF1240B5C2141250E12277
:01513A002252
:104C3F00D212D204125045D204123025D2157D80E3
:104C4F007F7F12492BE49000A0F07F89124DCFEFA8
:084C5F00547FFD7F89024CB671
:1046E500C212E49000A0F07F89124DCFEF547FFDF8
:1046F5007F89124CB6C2157813E6B40805C20412B8
:104705003025780EE6B404137D107FEF1249C7E417
:10471500FD7FEF1249C7C204125045E4FD7F7F02B9
:02472500492B1E
:104DAF00D2147813E6B408031251007FAE124DCF20
:104DBF00900085EFF07FAF124DCF900086EFF0227D
:10500600780EE6600AD2041250457F011240B5229E
:104D6E007813E6B4081A7F041247A67F017E00125C
:104D7E004F5A7F15124DCFEF30E2057F061222DA21
:014D8E002202
:0C50BF001227641219051239B0023A568B
:101905007813E67003021CD0D37812E6940018E62B
:101915009400400708E6161870011690009FE0C372
:10192500940F4003124B757813E6B4031118E618AB
:10193500466003021CD0124BEF7F01021C8978130D
:10194500E6B4010A124E8750057F02021C897813FE
:10195500E6FF64016019EF64026014EF6403600F31
:10196500EF6409600A124FF6401A7F02021C89785B
:1019750013E6FF6401600DEF64036008124E8740B3
:1019850003021A3C7813E6FF64026004EFB40418FE
:101995009000A4E024FFF09000A3E034FFF0E07095
:1019A50002A3E07003021A3C7813E66402705078D3
:1019B50011E6FE08E6FF4E70137BFF7A0B79BF90A8
:1019C5000026EEF0A3EFF01210D0806B7F10124DC1
:1019D500CF900002EFF07BFF7A0B79EE900026E4C2
:1019E500F0A3EFF01210D0900002E054A6FFF0BF74
:1019F500A60D200F057F09021C897F04021C89782A
:101A050013E6B4090B18E6184670057F04021C8915
:101A15007813E6B4040B18E6184670057F07021C18
:101A2500897813E66406706718E61846700C7BFF24
:101A35007A0C79051210D0024B757BFF7A0C79214F
:101A45007811E6FF08E6900026CFF0A3EFF012101C
:101A5500D07F041247A67F017E00124F5A7F1512D0
:101A65004DCF900002EFF020E2257F017E00124F5E
:101A75005A7F041247A67F017E00124F5A7F151226
:101A85004DCF900002EFF020E2057F08021C897817
:091A950013E664086003021CD092
:101A9E00C2023012087F05FE125112802A7812E619
:101AAE0064011846702112296D90008CE0FFA3E0AE
:101ABE0090006ACFF0A3EFF0900094E0900087F0D2
:101ACE0090009EE01392137812E618466003021CF3
:101ADE008490009FF0301203021C847F59124DCF68
:101AEE00900004E4F0A3EFF07F5A124DCFEF540FA5
:101AFE00FE900004E04EFEA3E0FF900004EEF0A383
:101B0E00EFF0FF90006AE0FCA3E0FDC39FEC9E5057
:101B1E000FC3900005E09DF0900004E09CF0801B48
:101B2E00900004E0FEA3E0FFC390006BE09FFF90E7
:101B3E00006AE09E900004F0A3EFF0D3900005E061
:101B4E009404900004E09400400BD2027BFF7A0CC8
:101B5E00794B1210D0300203021C507F64124DCF0D
:101B6E00900006EFF0900087E0FED39F40089000B3
:101B7E0006E0FFEE800A900087E0FF900006E0C3CB
:101B8E009F900003F0900006E0FFD39480401090E9
:101B9E000003E0D3648094865003021C508018909A
:101BAE000006E0FFD394404016900003E0D364801B
:101BBE0094845003021C507BFF7A0C795C80519008
:101BCE000006E0FFD394204031900003E0D3648000
:101BDE009482406E7BFF7A0C795C900026E4F0A331
:101BEE00EFF0900087E0FF900028E4F0A3EFF012F2
:101BFE0010D07BFF7A0C79848034900003E0D3649C
:101C0E00809481403D7BFF7A0C795C900006E0FF6A
:101C1E00900026E4F0A3EFF0900087E0FF900028FC
:101C2E00E4F0A3EFF01210D07BFF7A0C79789000DD
:101C3E0003E0FE3395E0900026F0A3CEF01210D014
:101C4E00D202C390008BE0942C90008AE094015055
:101C5E00252002227F58124DCFEF30E103C38001C1
:101C6E00D39203A203301301B3500B7BFF7A0C798E
:0E1C7E00901210D0D2023002057F020222DA4C
:101C8C007FAE124DCF900007EFF07FAF124DCF908B
:101C9C000008EFF0125062501B900085E0FF90009E
:101CAC0007E0B5070C900086E0FF900008E06F603D
:101CBC0003124DAF900007E0900085F0900008E013
:041CCC00900086F00E
:011CD00022F1
:102B60007B017A007953123182900053E020E70311
:102B7000022CDE7F78124DCFEF54F890000CF04419
:102B800001F0FD7F78124CB67F7E124DCFEF54CF0F
:102B900090000CF04470F0FD7F7E124CB690005314
:102BA000E030E62FE4FD7F0F124CB67F88124DCF48
:102BB00090000CEFF054EFF0FD7F88124CB67F7858
:102BC000124DCFEF54F890000CF0F0FD7F78124CCE
:102BD000B68007900053E030E50D7D207FDF12497D
:102BE000C7124F70022CCD7F88124DCF90000CEF92
:102BF000F054EFFD7F88124CB6900069E004F07F3E
:102C000077124DCF90000DEFF0900069E0D3940A59
:102C10004059E4F090000DE0FF30E60554BFF0802D
:102C20004A900083E0601624FE600B14601724F9BC
:102C3000601B24FC801FE4900083F0801E900083C2
:102C40007403F08016900083740AF0800E90008365
:102C5000740EF080069000837402F07BFF7A0C798A
:102C6000A31210D090000DE04440F090000DE0441D
:102C700080F0FD7F77124CB67D207FDF1249C712AE
:102C80004F7090000DE030E63D7F78124DCF900000
:102C90000CEFF054F0FFF0900083E0540F4F9000E1
:102CA0000CF0FD7F7E124CB690000CE0FD7F7E1292
:102CB0004CB690000CE0FD7F7E124CB690000CE00C
:102CC000FD7F7E124CB67D187FE712495F7F0812A8
:102CD00047A67D187FE712495F7F030240B5E49065
:102CE0000069F0900083740EF07F77124DCF900052
:102CF0000CEFF054BFF0FD7F77124CB67F78124D89
:0F2D0000CF90000CEFF054DFF0FD7F78124CB64F
:012D0F0022A1
:104C8F00122B607F057E00124F5A900053E030E7E1
:104C9F00107F15124DCFEF5418600280047F0480EF
:074CAF00027F011240B52253
:103A5600780EE624FD600D14601F24036003023A0D
:103A6600F0022B607810E6184670057F040240B518
:103A76007810E61618700116227B017A0079021278
:103A86003182900002E0FF900053E06F603AE490CC
:103A96000069F0900083740EF07F77124DCFEF54DB
:103AA600BFFD7F77124CB67F78124DCFEF54DFFD06
:103AB6007F78124CB67BFF7A0C79BC1210D0D204F8
:103AC6001250457F011240B57810E61846601B0873
:103AD600E616187001167810E61846700D90006903
:0A3AE600F07BFF7A0C79E41210D097
:013AF00022B3
:0950EC007F84124DCFEF540FFF39
:0150F5002298
:104FC1007F8A124DCFEF30E603D38001C3921AA23C
:014FD1001AC5
:014FD20022BC
:104FD3007F8A124DCFEF30E403D38001C3921BA22B
:014FE3001BB2
:014FE40022AA
:0950F6007F8A124DCFEF540FFF29
:0150FF00228E
:054D29009000D2EFF044
:104D2E007F78124DCFEF54F8FF9000D2E024F77049
:0F4D3E0003EF8004EF4401FFAD077F78024CB60E
:0B31820090000EEBF0A3EAF0A3E9F0D0
:10318D004A4B70030232BFE4FD7F0F124CB67F84B1
:10319D00124DCF900011EFF0540FFF90000EE0FB99
:1031AD00A3E0FAA3E0F9900002EF12053E7F8A1228
:1031BD004DCF900011EFF054F0FF90000EE0FBA307
:1031CD00E0FAA3E0F9EF12052C900011E0540FFF87
:1031DD0090000EE0FBA3E0FAA3E0F9900001EF12DE
:1031ED00053E7F017E00124F5A90000EE0FBA3E0DA
:1031FD00FAA3E02401F9E43AFAC003C002C00112B7
:10320D0004E6FFC0077F8A124DCFEF540FFED0E0CA
:10321D004ED001D002D00312052C7F017E00124F3B
:10322D005A90000EE0FBA3E0FAA3E02401F9E43A82
:10323D00FAC003C002C0011204E6FFC0077F8A1264
:10324D004DCFEF540FFED0E04ED001D002D003127F
:10325D00052C7F017E00124F5A90000EE0FBA3E07B
:10326D00FAA3E02401F9E43AFAC003C002C0011246
:10327D0004E6FFC0077F8A124DCFEF540FFED0E05A
:10328D004ED001D002D00312052C900011E05460F5
:10329D0070207F9C124DCF900011EFF020E1139024
:1032AD00000EE0FBA3E0FAA3E0F91204E6440112DC
:0232BD00052CDE
:0132BF0022EC
:0B34B8009000C8EBF0A3EAF0A3E9F0DD
:1034C3004A4B70030235A07F9C124DCF9000C8E099
:1034D300FBA3E0FAA3E0F9900003EF12053E7F9D02
:1034E300124DCF9000C8E0FBA3E0FAA3E0F99000EF
:1034F30004EF12053E7F9E124DCF9000C8E0FBA360
:10350300E0FAA3E0F9900005EF12053E7F9F124D0C
:10351300CFEF5403FE9000C8E0FBA3E0FAA3E0F969
:10352300900006EE12053EE92406F9E43AFA120485
:10353300E6C454F012052C9000C8E0FBA3E0FAA304
:10354300E02406F9E43AFAC002C0011204E6FE9050
:1035530000C8A3E0FAA3E0F99000021204FF540F9D
:103563004ED001D00212052C9000C8E0FBA3E0FA74
:10357300A3E0F99000021204FFF4540F9000071225
:10358300053EE92407F9E43AFA1204E6C454F0FECE
:0D35930012052CEF54F0C4540F4E12052CFD
:0135A0002208
:1039B000C202201203023A3AD37815E6940018E6C0
:1039C0009400406218E66408705C7815E61618707A
:1039D00001167F65124DCF900002EFF07BFF7A0D4C
:1039E00079087814E6FD08E6900026CDF0A3EDF006
:1039F000A3E4F0A3EFF01210D0900002E020E20266
:103A000080207815E61846701D9000A07480F07F25
:103A100089124DCF900002EFF04480F0FD7F8912B3
:103A20004CB6D202C2123015117F65124DCF9000F4
:103A300002EFF020E204C215D2023002187813E639
:103A4000B40812C204123025780EE6B40405C2048C
:053A5000125045C20206
:013A5500224E
:085112007811A60608A6072289
:08511A00780FA60608A6072283
:0522DA0090000AEFF086
:1022DF007813E6FE6F7003022541EEB4080D9000EF
:1022EF000AE064086005E4FF1240B57813E625E0C4
:1022FF00246DF582E43400F583E0FEA3E0AA06F92D
:10230F0090002674FFF0A3EAF0A3E9F090000AE032
:10231F0025E0246DF582E43400F583E0FEA3E0AA06
:10232F0006F990002974FFF0A3EAF0A3E9F07BFF10
:10233F007A0D792A1210D090000AE07813F6640211
:10234F00600FE66404600A9000A37403F0A3742086
:10235F00F09000A1E0146005047004801C801678D2
:10236F0013E6FF6408600EEF64066009EF64046013
:10237F0004EFB40704E4FD80027D207FDF1247677E
:10238F007813E614B4090040030225419023A97580
:10239F00F003A4C58325F0C583730223C40223CBA6
:1023AF000223C702243D02254102246D022541026A
:1023BF002479022402D210227F19806EE4FD7F1F40
:1023CF00124CB6E4FD7FD71248F7900084E0C39417
:1023DF00A340137F3C124DCF90000BEFF054FBF056
:1023EF00FD7F3C124CB6C216D2041230257FEE7E12
:1023FF000280747F16124DCFEF54F790000BF0FD53
:10240F007F16124CB67F011247A67F73124DCFEF86
:10241F0054F790000BF04408FD7F73124CB69000F8
:10242F000BE0FD7F73124CB67F147E0080397D81E7
:10243F007FA8124CB67D107F1F124CB67F087E000E
:10244F001251127F85124DCF7F9A124DCF900026D9
:10245F00E4F0A3EFF07BFF7A0D793E0210D0D204A7
:10246F001230257F967E000251127D287FD71248A9
:10247F00F77F057E001251127F9612511220140B16
:10248F00E4FF123FCE12481B122037125062401544
:10249F007D0A7FF51248F7C204123025E4FF12407F
:1024AF00B5C214806F3014031251007D047FFC12EB
:1024BF00495F7D857F7A12492B7D0A7FF51248F798
:1024CF007D20E4FF1249937F65124DCFEF30E20379
:1024DF00D38001C39212A2129217A2129204123049
:1024EF0025E4900069F0900083740EF07F77124D11
:1024FF00CF90000BEFF054BFF0FD7F77124CB67FFB
:10250F0078124DCFEF54DF90000BF0FD7F78124C17
:10251F00B6124C8F90008CE0FFA3E090006ACFF0D2
:10252F00A3EFF0900094E0900087F090009EE013EE
:02253F009213F5
:012541002277
:1040B500780EEFF625E0245BF582E43400F583E025
:1040C500FEA3E0AA06F990002674FFF0A3EAF0A388
:1040D500E9F07BFF7A0D79681210D0780EE624FDA1
:1040E500600C14601024047038D2040250457F0A15
:1040F5007E0002511AA21292041250457F327E00B0
:1041050012511A30121B7BFF7A0D79761210D07E70
:10411500003012047F7D80027F007814A60608A671
:0241250007226F
:0B3822009000ACEBF0A3EAF0A3E9F08B
:10382D00900008120720EC1201B49000AF1207505F
:10383D009000AFE0FCA3E0FDA3E0FEA3E0FFE4FBFE
:10384D00FA797A784412000E9000AF12075090006A
:10385D00AFE0FCA3E0FDA3E0FEA3E0FFC004C005C4
:10386D00C006C0079000ACE0FBA3E0FAA3E0F9901E
:10387D0000041205ACFDACF0E41201B9A804A905D1
:10388D00AA06AB07D007D006D005D00412011790B9
:10389D0000AF1207509000AFE0FCA3E0FDA3E0FEE7
:1038AD00A3E0FFC004C005C006C0079000ACE0FB5C
:1038BD00A3E0FAA3E0F99000061205ACFDACF0E42C
:1038CD001201B9A804A905AA06AB07D007D006D0E6
:0C38DD0005D0041201179000AF02075044
:10296D007F59124DCF900009EFF07F5A124DCF9045
:10297D00000AEFF07F5B124DCFAD0790000AE0FC2F
:10298D00540FFE900009E0FBEBFF90008CEEF0A3DE
:10299D00EFF0EC547075F010A4FFAEF0EDFBEF4BC3
:1029AD00FF900088EEF0A3EFF0EE4408FED3900008
:1029BD008DE09F90008CE09E400A900088E04408D6
:1029CD00F0A3E0F07F5C124DCF900009EFF07F5D3A
:1029DD00124DCF90000AEFF07F5E124DCFAD0790F4
:1029ED00000AE0FC5401FE900009E0FBEBFF9000B3
:1029FD0097EEF0A3EFF0EC54F075F010A4FFEF4D4F
:102A0D00FF900095E5F0F0A3EFF0900088E0FEA3B5
:102A1D00E0FFC390008DE09FFF90008CE09EFE9044
:102A2D000097E0FCA3E0FDC3EF9DFFEE9CFE900040
:102A3D0095E0FCA3E0FDC3EF9DFFEE9C900099F0A7
:102A4D00A3EFF07F5F124DCF900009EFF07F601282
:102A5D004DCF90000AEFF07F61124DCFAD07900082
:102A6D000AE0FC5407FE900009E0FBEBFF90008E9E
:102A7D00EEF0A3EFF0EC543075F010A4FFAEF0EFD4
:102A8D004DFF90008AEEF0A3EFF0EE4404FED390DC
:102A9D00008FE09F90008EE09E400890008AEEF03F
:102AAD00A3EFF07F62124DCF90009DEFF07F631288
:102ABD004DCF90009BEFF0E4A3F07F58124DCFEF78
:102ACD0030E1047F0080027F01EF5401FF90009EF2
:102ADD00E054FE4FF07F64124DCF900094EFF06004
:102AED0017E0FBE4FAF9F8FF7EBC7D34FC1246A139
:102AFD00900090120750801D7BFF7A0D7993900006
:102B0D0094E0900026F01210D090009012075C0017
:102B1D000004D2C32290008AE0FEA3E0FFD394C844
:102B2D00EE9400402CD390008FE09F90008EE09E9D
:102B3D00401F900088E0FEA3E0FFD3942CEE94019B
:102B4D00400FD390008DE09F90008CE09E4002D30B
:022B5D0022C391
:012B5F002253
:104198007813E6640770697BFF7A0D79AD1210D049
:1041A8007F9A124DCF900002EFF07BFF7A0D79DCF9
:1041B800900026E4F0A3EFF01210D0900002E0B4D3
:1041C800FF107DA07F05124CB67D207F05124CB6EE
:1041D80080257F011247A612296D12506292022093
:1041E800020B7BFF7A0D79FB1210D0C2147F1312D9
:1041F8004DCFEF540A60047F0280027F081222DA52
:014208002293
:053FCE0090000CEFF073
:103FD3007F20124DCF90000DEFF04410F09000A21F
:103FE300E054FCF090000CE0FD602C14601614709B
:103FF3003590000DE054F3F04408F09000A2E04443
:1040030002F0803090000DE054F3F04404F090008F
:10401300A2E04401F0801D90000DE054F3F0F09015
:1040230000A2E0F0800E7BFF7A0E790E900026ED61
:0E403300F00210D090000DE0FD7F20124CB680
:01404100225C
:10481B009000A2E054EFF0900088E0FEA3E0FF646C
:10482B00807003EE64076012E4B50716EEB4051250
:10483B00A3E0B4020DA3E0B4D0089000A2E04410B2
:0A484B00F0229000A2E054EFF022EA
:1038E900C2049000A2E024FF92057BFF7A0E792E94
:1038F9001210D07FAE124DCF90000CEFF07BFF7A03
:103909000E7953900026E4F0A374AEF0A3E4F0A37B
:10391900EFF01210D090000CE0FD900085F09000BF
:10392900A2E054FCF0EDC4135403602A146015148A
:1039390070347BFF7A0E79741210D09000A2E044A3
:1039490002F0802A7BFF7A0E79871210D09000A2AC
:10395900E04401F080187BFF7A0E799A1210D0901A
:1039690000A2E0F080087BFF7A0E79AC8035A205D1
:10397900E4335403FF9000A2E054036F7001E46044
:10398900097BFF7A0E79CF1210D07F20124DCF908C
:10399900000CEFF054EFF0FD7F20124CB67BFF7A5C
:0639A9000E79E91210D0B6
:0139AF0022F5
:103C20009000A2E024FF92047BFF3014067A0F7903
:103C30001D80047A0F7922900026EBF0A3EAF0A30E
:103C4000E9F07BFF7A0E79EB1210D03014587FAF79
:103C5000124DCF90000CEFF054C0FFF0BF40127B2C
:103C6000FF7A0F79281210D09000A2E054EFF0D321
:103C70002290000CE0B480127BFF7A0F793712108B
:103C8000D09000A2E04410F0D322A204E4335410F8
:103C9000FF9000A2E054106F7001E460097BFF7A8E
:103CA0000E79CF1210D07BFF7A0E79E91210D0C3B3
:013CB00022F1
:10203700E490000DF07816E6FF54036078146035DD
:102047001460030220F69000A2E054036025146098
:10205700091460030220F60220F1E490000CF0EF6F
:1020670030E605A3E04410F07816E620E7030220E7
:10207700F6806E80389000A2E0540360231460124B
:1020870014706C7816E630E60790000DE04410F007
:102097008058E490000CF07816E630E752A38044AD
:1020A7007816E630E60790000DE04410F090000C3B
:1020B7007402F0803A9000A2E05403602D14600B84
:1020C70014702C90000C7403F0802490000C74039F
:1020D700F07816E6FD30E605A3E04410F0ED30E7B2
:1020E7000E90000DE04490F08005E490000CF09015
:1020F700000CE0640260030221DD9000A2E030E4FE
:10210700667BFF7A0F79461210D09000A2E07BFF22
:1021170030E5237A0F794E1210D07BFF7A3B798A0C
:10212700900012E4F0A37403F07F211248C17BFFF3
:102137007A3B79B480217A0F79571210D07BFF7AD6
:102147003B798D900012E4F0A37403F07F211248CD
:10215700C17BFF7A3B79C6900012E4F0A37412F0BA
:102167007F241248C1806F7BFF7A0F795F1210D0EE
:102177009000A2E07BFF30E52E7A3B798A9000122F
:10218700E4F0A37403F07F211248C17BFF7A3B7907
:1021970090900012E4F0A37412F07F241248C17BE0
:1021A700FF7A0F794E802C7A3B798D900012E4F0FC
:1021B700A37403F07F211248C17BFF7A3B79A29079
:1021C7000012E4F0A37412F07F241248C17BFF7A57
:1021D7000F79571210D090000CE0640360030222BD
:1021E700B27BFF7A0F79671210D09000A2E030E43B
:1021F700577BFF7A0F79461210D07816E67BFF30AF
:10220700E5237A0F79761210D07BFF7A3B798A9093
:102217000012E4F0A37403F07F211248C17BFF7A18
:102227003B79FC80787A0F797E1210D07BFF7A3B5E
:10223700798D900012E4F0A37403F07F211248C156
:102247007BFF7A3C790E80557BFF7A0F795F1210FE
:10225700D07816E67BFF30E5237A0F79761210D017
:102267007BFF7A3B798A900012E4F0A37403F07F36
:10227700211248C17BFF7A3B79D880217A0F797E7A
:102287001210D07BFF7A3B798D900012E4F0A37493
:1022970003F07F211248C17BFF7A3B79EA90001255
:1022A700E4F0A37412F07F241248C17F20124DCFAF
:1022B700EF54FCFF90000CE04FFD7F20124CB67FDF
:1022C7001C124DCFEF544FFF90000DE04FFD7F1CC8
:0322D700024CB600
:0B50E100E4FF123FCE12481B022037F4
:095100001238E9123C20022037AC
:0B4042009000CBEFF0A3EDF0A3EBF03B
:10404D00D2041230259000CCE0FD7F1C124CB690AE
:10405D0000CBE0FD7F1B124CB67816E654FCFFF644
:10406D009000CDE054034FF67F3D124DCFEF543FFE
:10407D00FF7816E6540314600914700AEF4480FFAC
:10408D008004EF4440FFAD077F3D124CB67813E638
:10409D00B40814125062500512510080031250E101
:0740AD00A21292041230255B
:0140B40022E9
:104F70007D247F05124CB67F017E00124F5A7D20A2
:054F80007F05024CB6A4
:104F9A009000A1E0B401047F5F80027F7FAD077FAC
:044FAA0080024767D3
:0A49C70090000FEDF090000EEFF0ED
:1049D100600A7F87124DCF900010EFF0900010E039
:1049E100FF90000EE0FEEF5EFF900010F090000FD0
:0A49F100E04FA3F0FD7F87024CB6F3
:103025003004217F20124DCF90000CEFF044A0F02A
:10303500FD7F20124CB67F89124DCF90000CEFF02A
:1030450054BF80407813E6640860030231817F1C19
:10305500124DCF90000CEFF04402FD7F1C124CB6D0
:1030650090000CE054FDFD7F1C124CB67F65124D9F
:10307500CFEF7F8930E214124DCF90000CEFF05462
:10308500BFF04480F0FD7F89024CB6124DCF900011
:103095000CEFF0547FF04440F0FD7F89124CB67F71
:1030A50089124DCF90002AE4F0A3EFF07BFF7A0F51
:1030B5007985900026E4F0A37489F090000CE0FF78
:1030C500900028E4F0A3EFF01210D090000CE0542B
:1030D500BFF0FD7F89124CB67F89124DCF90002A33
:1030E500E4F0A3EFF07BFF7A0F7985900026E4F0FA
:1030F500A37489F090000CE0FF900028E4F0A3EFA2
:10310500F01210D07F20124DCF90000CEFF044A0AC
:10311500F0FD7F20124CB67F20124DCF90002AE49F
:10312500F0A3EFF07BFF7A0F7985900026E4F0A3FA
:103135007420F090000CE0FF900028E4F0A3EFF07D
:103145001210D090000CE0547FF0FD7F20124CB699
:103155007F20124DCF90002AE4F0A3EFF07BFF7A99
:103165000F7985900026E4F0A37420F090000CE020
:0C317500FF900028E4F0A3EFF01210D04F
:01318100222B
:0F5045003004047D1F8002E4FD7FE012476722E4
:103CB100E4FD7F0F124CB67F8A124DCF90000DEFBD
:103CC100F0E4A3F0EF54E0FFBFC00574C0F08068DA
:103CD100BFA00890000E74A0F0805D90000DE03050
:103CE100E7567F9C124DCFEF90000E30E1057490A6
:103CF100F080037480F090000DE0FD30E405A3E056
:103D01004408F0ED30E30990000EE04404F080280F
:103D110090000DE0FD30E207A3E04403F08019EDCF
:103D210030E10990000EE04402F0800C90000DE0BB
:0D3D310030E005A3E04401F090000EE0FF3B
:013D3E002262
:0B32C000900008EBF0A3EAF0A3E9F097
:1032CB00123CB190000CEFF054F0FF6003BFA00272
:1032DB00C322E4FD7F0F124CB67F9C124DCF9000A2
:1032EB0008E0FBA3E0FAA3E0F9EF12052C7F9D1297
:1032FB004DCF900008E0FBA3E0FAA3E0F9900001AA
:10330B00EF12053E7F9E124DCF900008E0FBA3E02D
:10331B00FAA3E0F9900002EF12053E7F84124DCF25
:10332B00EF540F90000BF0A3E054F0FFBFC01990C7
:10333B00000B7409F0900008E0FBA3E0FAA3E0F99E
:10334B001204E6440212052C7F9F124DCF90000809
:10335B00E0FBA3E0FAA3E0F9900003EF12053E9027
:10336B0000031204FFC4540F90000412053EE9241D
:10337B0004F9E43AFA1204E6FF90000BE0FEF45471
:10338B000FC454F04F12052C900008E0FBA3E0FA99
:10339B00A3E02403F9E43AFA1204E6540312052CD1
:1033AB001204E6C454F0FF12052CEE540F4F120515
:0233BB002CD311
:0133BD0022ED
:10449B00E4FD7F0F124CB67F88124DCF9000D3EF07
:1044AB00F0301C28E04410FD7F88124CB67F7E1242
:1044BB004DCF9000D3EFF054CFF04420F0FD7F7E32
:1044CB00124CB69000D3EFF07D0F800E9000D3E02E
:0F44DB004410FD7F88124CB67D107FE0124767BA
:0144EA0022AF
:104E2D00E4FD7F0F124CB67F7E124DCFEF54CF4471
:0E4E3D0020FD7F7E124CB67D0F7FE00247679E
:104E4B009000D4EFF0E4FD7F0F124CB69000D4E04D
:0E4E5B00540FF0640FF04410FD7FE002476733
:102542007BFF7A0F799E1210D0E4900004F0A3F082
:10255200900004E0FEA3E0FFC39410EE6480948038
:1025620050437BFF7A0F79A6900026EEF0A3EFF09E
:102572001210D0900004E0FEA3E0FF64034E600C52
:10258200EF64074E6006EF640B4E70097BFF7A0F13
:1025920079AC1210D0900005E004F070B390000402
:1025A200E004F080AB7BFF7A0F79AF1210D0E4FD2C
:1025B2007F0F124CB6E4900002F0A3F0900002E00C
:1025C200FEA3E0FFC3EE6480948140030226857B74
:1025D200FF7A0F79EF900026EEF0A3EFF01210D001
:1025E200E4900004F0A3F0900004E0FEA3E0FFC337
:1025F2009410EE648094805052900002A3E02FFF6A
:10260200124DCF900006EFF07BFF7A0F79A6900073
:1026120026E4F0A3EFF01210D0900004E0FEA3E055
:10262200FF64034E600CEF64074E6006EF640B4ECE
:1026320070097BFF7A0F79F71210D0900005E00441
:10264200F070A4900004E004F0809C7BFF7A0E7985
:10265200E91210D0900002E0FEA3E0FF7C007D4072
:10266200120560ED64304C70097BFF7A0F79FA1223
:1026720010D0900003E02410F0900002E03400F04B
:102682000225BE7D017F0F124CB69000027401F04C
:10269200A37480F0900002E0FEA3E0FFC3EE64802A
:1026A2009482400302275D7BFF7A0F79EF90002628
:1026B200EEF0A3EFF01210D0E4900004F0A3F0903B
:1026C2000004E0FEA3E0FFC39410EE648094805007
:1026D20052900002A3E02FFF124DCF900006EFF0C0
:1026E2007BFF7A0F79A6900026E4F0A3EFF0121098
:1026F200D0900004E0FEA3E0FF64034E600CEF64A0
:10270200074E6006EF640B4E70097BFF7A0F79F774
:102712001210D0900005E004F070A4900004E004D0
:10272200F0809C7BFF7A0E79E91210D0900002E0D3
:10273200FEA3E0FF7C007D40120560ED64304C702A
:10274200097BFF7A0F79FA1210D0900003E024106F
:10275200F0900002E03400F0022696E4FD7F0F02C2
:022762004CB673
:10461400486F6C645C0D00486F6C642D0D00486F2E
:104624006C642F0D00486F6C647C0D004850444F3F
:1046340066665F5469636B436F756E74203D202515
:10464400642C2075635469636B436F756E74203DED
:074654002025640D000A009F
:053DC200011800C19E84
:104A930090002F7401F0A37400F0A374B9F0781898
:104AA300E6A3F01237549000B9E0FF9000B6E0FBA4
:0F4AB300A3E0FAA3E0F9EF12052C9000B9E0FFA1
:014AC20022D1
:104EC0009000177401F0A37400F0A374C7F0781871
:0A4ED000E6A3F0123F59921DA21D47
:014EDA0022B5
:104DCF00AD0790002F7401F0A37400F0A37428F0C6
:0F4DDF00E4A3F07B017F90123754900028E0FF8F
:014DEE0022A2
:104CB600900012EDF0AD079000177401F0A3740098
:104CC600F0A37412F0E4A3F07B017F90123F5950D9
:074CD600037F00227F012291
:10488B00900027EBF0A3EAF0A3E9F0AD07A3A3E0B8
:10489B00FB900027E0F9A3E0FAA3E090002FC9F00A
:1048AB00A3EAF0A3E9F0E4A3F07F9012375450038E
:0648BB007F00227F0122B4
:1048C10090000FEBF0A3EAF0A3E9F0AD07A3A3E09A
:1048D100FB90000FE0F9A3E0FAA3E0900017C9F004
:1048E100A3EAF0A3E9F0E4A3F07F90123F5950034B
:0648F1007F00227F01227E
:074F4200D207EF900035F0EB
:104F49000000000000000000900035E0A2079290E8
:014F59002235
:07501600C207EF900035F026
:09501D00900035E0A207929122F7
:0E5070000000000000000000EFD291A291228B
:104F8500D207125018124F42125016C20790003520
:054F9500EFF0024F499E
:10458300900017E0FBA3E0FAA3E0F91204E6FF9022
:04459300001AE0FD2D
:10459700E4FEEFA806088002C333D8FC5480FC6011
:1045A70003D38001C39206A2069207ED125019D2D7
:1045B70007ED124F45C207900035EDF0124F490E37
:0445C700EEB408CE78
:0145CB0022CD
:054C670090001AE0FFBF
:024C6C00AE0791
:104C6E00D207900035EEF012501DD207900035EEAF
:104C7E00F0124F491250709206C207124F44A2060C
:014C8E002203
:024A2F00AE07D0
:104A3100E4FDFCD207900035EEF0124F49AF0612AB
:104A410050709206ED25E0FFA206E4334FFDC20748
:0F4A5100900035EEF0124F490CECB408D6AF05CB
:014A60002233
:084A6100900032E0900034F0F7
:104A6900A2069207900034E0125019D20790003440
:104A7900E0124F45C207900034E0124F45D207902B
:0A4A89000034E0900035F002501DEB
:10502600125016124F42D207900035EFF002501D73
:093F5900900016EBF0AA05AE077A
:103F620090001AE0FF124F85EE54FE124591124C5A
:103F72006750028027AF02124592124C67500280AE
:103F82001BE490001BF0900016E014FF90001BE071
:103F9200C39F5021124583124C67500790001AE0CC
:103FA200FF801F900018E475F00112059690001B27
:103FB200E004F080D1124583124C6790001AE0FFB2
:0B3FC2005005125026C322125026D3D7
:013FCD0022D1
:0937540090002EEBF0AA07A90574
:10375D00900032E0FF124F85EA54FEFF900032E0F8
:10376D00FD124597900032E0FF124C6C50028034F0
:10377D00AF01900032E0FD124597900032E0FF124C
:10378D004C6C5002801E900032E0FF124F85EA44CF
:10379D0001FF900032E0FD124597900032E0FF12DC
:1037AD004C6C500A900032E0FF125026C322E49078
:1037BD000033F090002EE014FF900033E0C39F50D3
:1037CD002E900032E0FF124A2F90002FE0FBA3E075
:1037DD00FAA3E0F9EF12052CC206124A61900030EF
:1037ED00E475F001120596900033E004F080C4906A
:1037FD000032E0FF124A2F90002FE0FBA3E0FAA366
:10380D00E0F9EF12052CD206124A61900032E0FF6A
:04381D00125026D34C
:013821002284
:104F5A00900012EEF0A3EFF0900012E0FEA3E0FF43
:064F6A001249FB50F32286
:104B4900D2952095267BFF7A4679141210D07BFFE7
:104B59007A46791B1210D07BFF7A4679221210D03F
:0C4B69007BFF7A4679291210D080D722F9
:1043F700201E4F9000CEE0FEA3E0FFE4FCFD124438
:104407004AC3EF94D0EE940750267BFF7A46793063
:104417009000CEE0FFA3E0900026CFF0A3EFF07866
:1044270019E6FF08E6A3CFF0A3EFF01210D080C380
:104437007BFF7A4679591210D0D202125036D2EA4F
:03444700D21E2260
:104EDB00301E177819E6FF08E69000CECFF0A3EF4F
:0B4EEB00F0C202125036C2EAC21E22C2
:09510900D296209602D322C322A3
:053DC7004200D00000E5
:10444A009000161207507819E6FE08E6FFE4FCFD14
:10445A00900016E0F8A3E0F9A3E0FAA3E0FBD31278
:10446A00070F9000164018A3A3E0FEA3E0781A965F
:10447A00FFEE1896FEC374FF9FFF74FF9EFE22A3F1
:10448A00A3E0FEA3E0FFC3781AE69FFF18E69EFEAC
:01449A0022FF
:1049FB00900014EEF0A3EFF09000D0E0FEA3E0FFE8
:104A0B00E4FCFD12444AD3900015E09F900014E0A3
:104A1B009E500F7819E6FF08E69000D0CFF0A3EF79
:044A2B00F022C32290
:104B9E005389F0438901758CEE758A6CD2A9D28C3B
:104BAE0075CCF275CDFF75CAF275CBFF759852753F
:094BBE00C834C2CAD2CAD2AF2227
:03000B00024E6939
:104E6900C0E0C0D075D000C000758CEE758A6C7832
:0E4E79001A06E618700106D000D0D0D0E03244
:103B8A00008000108010B2046402E900933C18041B
:103B9A00563F493D9F3E180409040E02C8000E3DD7
:103BAA0084036E3FAC3DD03E8403B805B401930054
:103BBA00493C18049F3FD93C103F1804E50478019A
:103BCA008100CE3C8403AE3F493D333F8403000865
:103BDA006A3A4F3D0008F70A000000080000DB0DB2
:103BEA004F098139DF3C4F09C20C00004F09000020
:103BFA001E100008533C893E0008510C00000008C2
:103C0A000000870E4F09BA3B4B3E4F09560E000083
:063C1A004F090000E71055
:10000E00EC4D6011E8497017ED33EC3304600DE4EC
:10001E00FCFFFEFD22E933E8330470F802022712DA
:10002E0001F258046009E4CC2481500628500902DC
:10003E00023128400302022EC0E0EB4A7044B98020
:10004E0006D0E0FB02021DEF4E701CBD8008EBFFD8
:10005E00EAFEE9FD80EBE98DF0A4FEE5F00200F783
:10006E00E9CDF9EAFEEBFFEF89F0A4FCE5F0CE89CD
:10007E00F0A42EFFE435F0CD89F0A42DFEE435F08A
:10008E008067EF4E7005BD80D780C3EF8BF0A4ACB8
:10009E00F0EE8BF0A42CFCE435F0F8EF8AF0A42CF3
:1000AE00E5F038FCE433CB8DF0A42CFCE5F03BF806
:1000BE00EE8AF0A42CFCE5F038F8E433CF89F0A4F6
:1000CE002CFCE5F038CF3400CE89F0A42FFFE5F0FC
:1000DE003EFEE433C98DF0A42EFEE5F039CD8AF054
:1000EE00A42FFFE5F03EFEE43DFD33D0E0FB5007CC
:1000FE000BBB000F020231EC2CFCEF33FFEE33FE94
:06010E00ED33FD020209C1
:10011400020231EC5D046005E85904700302022711
:100124001201F2580460F6EC4860F2EC7004FDFE33
:10013400FF22C860DB2481C85009C39860025006BE
:1001440002022E9850CAF582E9294B4A7005AB8207
:1001540002021D75F0007C1A7880C3EF9BEE9AEDC5
:1001640099400DC3EF9BFFEE9AFEED99FDE842F036
:10017400DC23ACF0D0E0FFD0E0FED0E0FDAB822089
:10018400E7101BEB60BAEC2CFCEF33FFEE33FEED13
:1001940033FD020209E803F830E705C0F075F0000A
:1001A400EF2FFFEE33FEED33FD40B830E7C280AAF7
:1001B40075F020800E75F010800575F0087D007EC6
:1001C400007F003392D530D503120701EC33401081
:1001D400EF33FFEE33FEED33FDEC33FCD5F0ED22CF
:0E01E400E5F0247EA2D513CC92E7CDCEFF220B
:10106500E5082426F582E43400F583E0050822909E
:101075000023300D03900026E475F00112078D0260
:1010850004E62006E97F2ED2068018EF540F24903F
:10109500D43440D4FF300A0BEF24BFB41A005003F8
:1010A5002461FFE50960021509050CE50C700205D0
:1010B5000B300D0E900023E475F00112078DEF0241
:1010C500052C024CDD7403D20D8003E4C20DF50836
:1010D5009000231207A4E4F509F50BF50CE509606A
:1010E500077F201210A880F5750AFFC207C206C245
:1010F50008C209C20BC20CC20E121074FF700D306B
:101105000D057F001210B9AF0CAE0B22B4255FC2DE
:10111500D5C20A121074FF24D0B40A00501A75F013
:101125000A780930D50508B6FF0106C6A426F620BB
:10113500D5047002D20980D924CFB41A00EF500427
:10114500C2E5D20A0213ABD20780C6D20680C0D24E
:101155000880BCD2D580BAD20B80B47F201210A8EB
:101165002008077401B5090040F1121065FF12103F
:10117500A80210E2D20ED20C8095121065FB121057
:1011850065FA121065F94A4B700679A97A147BFF46
:1011950020082EE509602A7E008E827583001204E0
:1011A500FF60060EEE650A70F0C2D5EBC0E0EAC03E
:1011B500E0E9C0E0EE12140CD0E0F9D0E0FAD0E09E
:1011C500FB1204E6FF60AAEBC0E0EAC0E0E9C0E07C
:1011D5001210A8D0E02401F9D0E03400FAD0E0FBE9
:1011E500E50A0460DCD50AD98087D20880A21213EB
:1011F500EE60F7E50A70010412023CA90A600DE5EC
:101205000A600914F50A121496EF60F3EA30E70252
:10121500F404C3995079EAF4250A0430E701E4049B
:10122500F50A800D1213EE60C1EA050A250A1202BD
:101235003CEA900052F030E701E4250A04D50A049F
:10124500200B011412140CE4C0E012149690005205
:10125500E0601320E70714F0121090802204F0D00C
:10126500E014C0E07F00121090E50A6007121087B5
:10127500150A800B300B03121087D0E00210E2D064
:10128500E00480C41213EE609EE50A0412023C904D
:101295000052EAF0E50A200B02600104240412144E
:0112A5000C3C
:1012A60074FF04C0E0121496121090E50A200B0297
:1012B6006003121087D0E0B50AE87F4512109A90B5
:1012C6000052E07F2B30E7047F2DF404C0E01210BB
:1012D600A8D0E075F00A84C0F0121091D0E0121088
:1012E600910210E2791080027908C20CC20E8008C1
:1012F600D2D5790A8004790AC2D5E50A047002F5C6
:101306000AE4FAFDFEFF121065FC7B0820071312A3
:101316001065FD7B1030060A121065FE121065FF7F
:101326007B20EC3382D592D55013C3E43006069F5A
:10133600FFE49EFEE42007039DFDE49CFCE4CBF85D
:10134600C207EC700CCFCECDCCE824F8F870F38051
:1013560017C3EF33FFEE33FEED33FDEC33FCEB3317
:10136600FB994002FB0FD8E9EB300705F8D0E0C443
:1013760048B207C0E00AEC4D4E4F78207B0070C2A1
:10138600EAB50A0040BCC0E012140ED0F0D0E0204E
:101396000704C4C0E0C4B207C0F0121091D0F0D563
:1013A600F0EB0210E21207AD117F5312EA5811500A
:1013B6004C114C4212EE4F12F64412F64911654397
:1013C60012FC5512294612894511F34714C95011CA
:1013D600542D11582E117B2B115C2311792014B238
:1013E6002A11144800001173E50AB4FF03750A06B2
:1013F600121065FC121065FD121065FE121065FFD5
:1014060090004B020279790AA2D5200914300B0903
:10141600B910020404B9080104A2D5200C02500137
:10142600042008689208B509005034C0E07F2030D7
:1014360009197F30A208720C720B500F121465C284
:1014460008C20CC20BC20E7F30800F300B03E9C0FE
:10145600E01210A8300B03D0E0F9D0E0B509CC308B
:101466000B177F30B9100C1210A87F58300A077F6F
:10147600788003B908031210A83008057F2D0210E2
:10148600A87F20200EF87F2B200CF322920880CF15
:101496007F00B40700500B244BF582E43400F5833B
:1014A600E0FF22286E756C6C2900D2071210653099
:1014B60007F8C207780930D50108F60211142D5035
:1014C6004349581210652403B405004001E4901402
:1014D600C493121099743A121099D209750904022C
:0214E60012EA08
:1001F200E9D2E7C933E833F892D5EDD2E7CD33EC53
:0702020033FC5002B2D522CB
:10020900EC30E7100FBF000C0EBE00080DBD000456
:100219000BEB6014A2D5EB13FCED92E7FD2274FF02
:10022900FCFDFEFF22E480F8A2D574FF13FC7D805B
:03023900E480EF6F
:10023C00F920E73624F950037907E4F42402FBE5AE
:10024C0082158270021583DBF6E024FB501BE960FB
:10025C0014E4F0E582158270021583E004F0B40A10
:0D026C0008E4F0D9EE7401F00A22C2D52298
:10027900ED33EC3392D5FA602AB4FF33EDC2E77B54
:10028900FF60067A02799EE4227A0279A720D504D2
:100299007A0279A2224E614E002B494E46002D4921
:1002A9004E4600E47A08F0A3DAFC7B00740722C00A
:1002B90083C082ECC0E0EDC0E0EEC0E0EFC0E0EA50
:1002C90075F010A4CAABF075F04DA42BFBE435F022
:1002D900FCEA2410FAEB34C5FBEC34D9FCEDC2E797
:1002E900FF75F056A4F42411C5F0F434C58FF0A4B9
:1002F9002AE5F03BE43CF020E7141204A6D0E0FF25
:10030900D0E0FED0E0FDD0E0FC1201178014F40427
:100319001204A6D0E0FFD0E0FED0E0FDD0E0FC1250
:10032900000ED082D083E0FAEDD2E7CD33EC33244E
:1003390082FBE4C3CF33CFCE33CECD33CD33DBF322
:100349007B0775F00A846004F0A31B0AE5F0F0A3AB
:100359008FF0740AA4FFACF08EF0740AA42CFEACE2
:10036900F050010C8DF0740AA42CFDE435F0F0A3D3
:05037900DBDE74072229
:10037E00020227E86480F8E933E83360110460F084
:10038E00ED33EC337009E8FCE9FDEAFEEBFF2204E5
:10039E0060DED3EB9FEA9EE99DE8C2E78CF0C2F7E0
:1003AE0095F0400CE8CCF8E9CDF9EACEFAEBCFFBAC
:1003BE001201F285D0F05804700320D5B3E8047012
:1003CE00075002B2D502023192D5EC0460F7E4CCAC
:1003DE00C0E0C398F8603B94186008400DD0E0FB75
:1003EE00020209E4FBFAC9FC8028E830E406E4C9FD
:1003FE00FBE4CAFCE830E305E4C9CACBFCE85407C9
:10040E006010F8C3E913F9EA13FAEB13FBEC13FCD3
:10041E00D8F130F52FC3E49CFCEF9BFFEE9AFEED76
:10042E0099FDD0E0FBEF4E4D4C701222DB03020221
:10043E002EEC2CFCEF33FFEE33FEED33FDED30E70B
:10044E00EB020209EF2BFFEE3AFEED39FDD0E0FB99
:10045E0050130BBB0003020231ED13FDEE13FEEF42
:08046E0013FFEC13FC0202096C
:100476003F8000004120000042C80000447A00008E
:10048600461C400047C35000497424004B18968010
:100496004CBEBC205A0E1BCA6753C21C749DC5AE07
:1004A600FB60065407601C23231204D4EB54386007
:1004B600091204C01204CF12000EECF8EDF9EEFAA0
:1004C600EFCB22EB1204CF80F1543803241C9004A6
:1004D60076FE93FC0EEE93FD0EEE930ECE93FF2268
:03000000023DCDF1
:0C3DCD00787FE4F6D8FD758123023E14D7
:1004E600BB010689828A83E0225002E722BBFE0214
:0904F600E32289828A83E4932247
:1004FF00BB010CE58229F582E5833AF583E02250B2
:10050F0006E92582F8E622BBFE06E92582F8E222FB
:0D051F00E58229F582E5833AF583E4932215
:10052C00BB010689828A83F0225002F722BBFE01AE
:02053C00F322A8
:10053E00F8BB010DE58229F582E5833AF583E8F0F3
:10054E00225006E92582C8F622BBFE05E92582C89F
:02055E00F22287
:10056000C2D5EC30E709B2D5E4C39DFDE49CFCEEB6
:1005700030E715B2D5E4C39FFFE49EFE1207D3C354
:10058000E49DFDE49CFC80031207D330D507C3E44F
:060590009FFFE49EFE2225
:10059600C5F0F8A3E028F0C5F0F8E58215827002F0
:0605A6001583E038F0228D
:1005AC00BB0110E58229F582E5833AF583E0F5F08D
:1005BC00A3E0225009E92582F886F008E622BBFE6A
:1005CC000AE92582F8E2F5F008E222E5832AF583B0
:0805DC00E993F5F0A3E9932275
:1005E400E88FF0A4CC8BF0A42CFCE98EF0A42CFCB6
:1005F4008AF0EDA42CFCEA8EF0A4CDA8F08BF0A434
:100604002DCC3825F0FDE98FF0A42CCD35F0FCEB92
:100614008EF0A4FEA9F0EB8FF0A4CFC5F02ECD3957
:0F062400FEE43CFCEAA42DCE35F0FDE43CFC22C4
:1006330075F008758200EF2FFFEE33FECD33CDCC7E
:1006430033CCC58233C5829BED9AEC99E582984001
:100653000CF582EE9BFEED9AFDEC99FC0FD5F0D6DE
:10066300E4CEFBE4CDFAE4CCF9A88222B800C1B908
:100673000059BA002DEC8BF084CFCECDFCE5F0CB46
:10068300F97818EF2FFFEE33FEED33FDEC33FCEB7F
:1006930033FB10D703994004EB99FB0FD8E5E4F93A
:1006A300FA227818EF2FFFEE33FEED33FDEC33FC27
:1006B300C933C910D7059BE99A4007EC9BFCE99A1B
:1006C300F90FD8E0E4C9FAE4CCFB2275F010EF2F60
:1006D300FFEE33FEED33FDCC33CCC833C810D70760
:1006E3009BEC9AE899400AED9BFDEC9AFCE899F89B
:0E06F3000FD5F0DAE4CDFBE4CCFAE4C8F9222E
:1046A100C2D5E830E70FB2D5E4C39BFBE49AFAE444
:1046B10099F9E498F8EC30E717B2D51246D712060B
:1046C1006FE4C39BFBE49AFAE499F9E498F8800358
:1046D10012066F30D50DE4C39FFFE49EFEE49DFDFD
:0446E100E49CFC2237
:0E070100C3E49FFFE49EFEE49DFDE49CFC2209
:10070F00EB9FF5F0EA9E42F0E99D42F0E89C45F040
:01071F0022B7
:10072000BB010DE58229F582E5833AF583020834A1
:100730005007E92582F8020828BBFE07E92582F860
:10074000020840E58229F582E5833AF58302084CE8
:0C075000ECF0A3EDF0A3EEF0A3EFF0221C
:10075C00A8828583F0D083D082120773120773129C
:10076C000773120773E473E493A3C583C5F0C583C1
:10077C00C8C582C8F0A3C583C5F0C583C8C582C8E7
:01078C00224A
:10078D00F8E0FBA3A3E0F925F0F0E58215827002F5
:07079D001583E0FA38F02299
:0907A400EBF0A3EAF0A3E9F02256
:1007AD00D083D082F8E4937012740193700DA3A3DB
:1007BD0093F8740193F5828883E4737402936860EF
:0607CD00EFA3A3A380DFEF
:104CDD00EFB40A07740D124CE8740A309811A899B4
:104CED00B8130CC2983098FDA899C298B811F63037
:074CFD0099FDC299F599220F
:103DD900022D10E493A3F8E493A34003F68001F2C3
:103DE90008DFF48029E493A3F85407240CC8C333EB
:103DF900C4540F4420C8834004F456800146F6DFBA
:103E0900E4800B0102040810204080903D3FE47ECD
:103E1900019360BCA3FF543F30E509541FFEE493AE
:103E2900A360010ECF54C025E060A840B8E493A375
:103E3900FAE493A3F8E493A3C8C582C8CAC583CAA0
:103E4900F0A3C8C582C8CAC583CADFE9DEE780BE58
:013DCC0000F6
:1007D300BC000BBE0029EF8DF084FFADF022E4CC0A
:1007E300F875F008EF2FFFEE33FEEC33FCEE9DECD3
:1007F300984005FCEE9DFE0FD5F0E9E4CEFD22ED19
:10080300F8F5F0EE8420D21CFEADF075F008EF2F62
:10081300FFED33FD4007985006D5F0F222C398FD53
:050823000FD5F0EA22F0
:0C082800E6FC08E6FD08E6FE08E6FF22FC
:0C083400E0FCA3E0FDA3E0FEA3E0FF2237
:0C084000E2FC08E2FD08E2FE08E2FF22F4
:10084C00E493FC740193FD740293FE740393FF22F2
:00000001FF
